{
  "contractName": "CompteBanque",
  "abi": [
    {
      "inputs": [],
      "stateMutability": "nonpayable",
      "type": "constructor"
    },
    {
      "stateMutability": "payable",
      "type": "receive",
      "payable": true
    },
    {
      "inputs": [],
      "name": "getBalance",
      "outputs": [
        {
          "internalType": "uint256",
          "name": "",
          "type": "uint256"
        }
      ],
      "stateMutability": "view",
      "type": "function",
      "constant": true
    },
    {
      "inputs": [
        {
          "internalType": "uint256",
          "name": "montant",
          "type": "uint256"
        }
      ],
      "name": "setBalance",
      "outputs": [
        {
          "internalType": "uint256",
          "name": "",
          "type": "uint256"
        }
      ],
      "stateMutability": "nonpayable",
      "type": "function"
    },
    {
      "inputs": [],
      "name": "getOwner",
      "outputs": [
        {
          "internalType": "address",
          "name": "",
          "type": "address"
        }
      ],
      "stateMutability": "view",
      "type": "function",
      "constant": true
    },
    {
      "inputs": [
        {
          "internalType": "address",
          "name": "acheteur",
          "type": "address"
        },
        {
          "internalType": "address",
          "name": "vendeur",
          "type": "address"
        },
        {
          "internalType": "uint256",
          "name": "montant",
          "type": "uint256"
        }
      ],
      "name": "transfer",
      "outputs": [],
      "stateMutability": "nonpayable",
      "type": "function"
    }
  ],
  "bytecode": "0x608060405234801561001057600080fd5b50600180546001600160a01b03191633179055610304806100326000396000f3fe6080604052600436106100435760003560e01c806312065fe014610074578063893d20e8146100a5578063beabacc8146100cd578063fb1669ca146100ef57600080fd5b3661006f573360009081526020819052604081208054349290610067908490610231565b925050819055005b600080fd5b34801561008057600080fd5b50336000908152602081905260409020545b6040519081526020015b60405180910390f35b3480156100b157600080fd5b506001546040516001600160a01b03909116815260200161009c565b3480156100d957600080fd5b506100ed6100e8366004610266565b61010f565b005b3480156100fb57600080fd5b5061009261010a3660046102a2565b6101ee565b816001600160a01b0316836001600160a01b03160361018f5760405162461bcd60e51b815260206004820152603260248201527f566f757320706f7576657a20706173207472616e736665726572206465206c27604482015271617267656e74206120766f7573206d656d6560701b606482015260840160405180910390fd5b6001600160a01b038316600090815260208190526040812080548392906101b79084906102bb565b90915550506001600160a01b038216600090815260208190526040812080548392906101e4908490610231565b9091555050505050565b3360009081526020819052604081208054839190839061020f908490610231565b91829055509392505050565b634e487b7160e01b600052601160045260246000fd5b808201808211156102445761024461021b565b92915050565b80356001600160a01b038116811461026157600080fd5b919050565b60008060006060848603121561027b57600080fd5b6102848461024a565b92506102926020850161024a565b9150604084013590509250925092565b6000602082840312156102b457600080fd5b5035919050565b818103818111156102445761024461021b56fea2646970667358221220f3a239f546ecc354cb52b1a1dd2288af75bb7a2fed7611bcf25cc4dcb7d7346764736f6c63430008110033",
  "immutableReferences": {},
  "source": "\r\n// SPDX-License-Identifier: MIT\r\npragma solidity 0.8.17;\r\n\r\ncontract CompteBanque {\r\n\r\nmapping(address => uint256) balance;\r\naddress owner; \r\n\r\nconstructor() { \r\n\r\nowner = msg.sender; \r\n \r\n} \r\n\r\nmodifier isOwner(){\r\n        require(owner == msg.sender, \" cette fonctionalite n'est autorisee que pour le proprietaire du contrat\");\r\n        _;\r\n    }\r\n\r\nfunction getBalance() public view returns(uint256)  {\r\n return balance[msg.sender]; \r\n} \r\n\r\nfunction setBalance(uint256 montant) public returns(uint256)  {\r\n return balance[msg.sender] += montant; \r\n} \r\n\r\nfunction getOwner() public view returns(address) {\r\n return owner; \r\n} \r\n\r\n\r\nfunction transfer(address acheteur, address  vendeur, uint256 montant) public { \r\n  //require( balance[msg.sender]>=montant, \"Le solde du compte est insuffisant\"); \r\n  require(acheteur != vendeur, \"Vous pouvez pas transferer de l'argent a vous meme\");\r\n    balance[acheteur] -= montant;\r\n    balance[vendeur] += montant; \r\n}\r\n\r\n    receive() external payable{\r\n        balance[msg.sender] +=  msg.value;\r\n    }\r\n\r\n}",
  "sourcePath": "D:\\Master2_Info\\projets\\VoitureCollection_Vente\\contracts\\CompteBanque.sol",
  "compiler": {
    "name": "solc",
    "version": "0.8.17+commit.8df45f5f.Emscripten.clang"
  },
  "schemaVersion": "3.4.10",
  "updatedAt": "2022-11-27T18:09:03.492Z",
  "networkType": "ethereum",
  "devdoc": {
    "kind": "dev",
    "methods": {},
    "version": 1
  },
  "userdoc": {
    "kind": "user",
    "methods": {},
    "version": 1
  }
}