{
  "contractName": "VoitureCollection",
  "abi": [
    {
      "inputs": [],
      "stateMutability": "nonpayable",
      "type": "constructor"
    },
    {
      "inputs": [],
      "name": "getBalance",
      "outputs": [
        {
          "internalType": "uint256",
          "name": "",
          "type": "uint256"
        }
      ],
      "stateMutability": "view",
      "type": "function",
      "constant": true
    },
    {
      "inputs": [],
      "name": "getOwner",
      "outputs": [
        {
          "internalType": "address",
          "name": "",
          "type": "address"
        }
      ],
      "stateMutability": "view",
      "type": "function",
      "constant": true
    },
    {
      "inputs": [
        {
          "internalType": "uint256",
          "name": "montant",
          "type": "uint256"
        }
      ],
      "name": "setBalance",
      "outputs": [
        {
          "internalType": "uint256",
          "name": "",
          "type": "uint256"
        }
      ],
      "stateMutability": "nonpayable",
      "type": "function"
    },
    {
      "inputs": [
        {
          "internalType": "address",
          "name": "acheteur",
          "type": "address"
        },
        {
          "internalType": "address",
          "name": "vendeur",
          "type": "address"
        },
        {
          "internalType": "uint256",
          "name": "montant",
          "type": "uint256"
        }
      ],
      "name": "transfer",
      "outputs": [],
      "stateMutability": "nonpayable",
      "type": "function"
    },
    {
      "stateMutability": "payable",
      "type": "receive",
      "payable": true
    },
    {
      "inputs": [
        {
          "internalType": "uint256",
          "name": "_id",
          "type": "uint256"
        },
        {
          "internalType": "string",
          "name": "_matricule",
          "type": "string"
        },
        {
          "internalType": "string",
          "name": "_nom",
          "type": "string"
        },
        {
          "internalType": "uint256",
          "name": "_prix",
          "type": "uint256"
        },
        {
          "internalType": "string",
          "name": "_imgVoiture",
          "type": "string"
        }
      ],
      "name": "ajouterVoiture",
      "outputs": [
        {
          "internalType": "bool",
          "name": "ok",
          "type": "bool"
        }
      ],
      "stateMutability": "nonpayable",
      "type": "function"
    },
    {
      "inputs": [],
      "name": "getListVoitures",
      "outputs": [
        {
          "internalType": "string[]",
          "name": "_listeVoitures",
          "type": "string[]"
        }
      ],
      "stateMutability": "view",
      "type": "function",
      "constant": true
    },
    {
      "inputs": [
        {
          "internalType": "string",
          "name": "_matricule",
          "type": "string"
        }
      ],
      "name": "getVoitureStatutByMatricule",
      "outputs": [
        {
          "internalType": "string",
          "name": "matricule",
          "type": "string"
        },
        {
          "internalType": "string",
          "name": "nom",
          "type": "string"
        },
        {
          "internalType": "uint256",
          "name": "prix",
          "type": "uint256"
        },
        {
          "internalType": "string",
          "name": "status",
          "type": "string"
        },
        {
          "internalType": "address",
          "name": "acheteur",
          "type": "address"
        },
        {
          "internalType": "address",
          "name": "vendeur",
          "type": "address"
        },
        {
          "internalType": "string",
          "name": "imgVoiture",
          "type": "string"
        }
      ],
      "stateMutability": "view",
      "type": "function",
      "constant": true
    },
    {
      "inputs": [],
      "name": "getMyListVoitures",
      "outputs": [
        {
          "internalType": "string[]",
          "name": "v",
          "type": "string[]"
        }
      ],
      "stateMutability": "view",
      "type": "function",
      "constant": true
    },
    {
      "inputs": [
        {
          "internalType": "string",
          "name": "_matricule",
          "type": "string"
        }
      ],
      "name": "acheterVoiture",
      "outputs": [
        {
          "internalType": "bool",
          "name": "success",
          "type": "bool"
        }
      ],
      "stateMutability": "payable",
      "type": "function",
      "payable": true
    },
    {
      "inputs": [
        {
          "internalType": "uint256",
          "name": "matriculeId",
          "type": "uint256"
        }
      ],
      "name": "acheter",
      "outputs": [
        {
          "internalType": "uint256",
          "name": "",
          "type": "uint256"
        }
      ],
      "stateMutability": "nonpayable",
      "type": "function"
    },
    {
      "inputs": [],
      "name": "getAcheteurs",
      "outputs": [
        {
          "internalType": "address[20]",
          "name": "",
          "type": "address[20]"
        }
      ],
      "stateMutability": "view",
      "type": "function",
      "constant": true
    },
    {
      "inputs": [],
      "name": "getSoldeCompte",
      "outputs": [
        {
          "internalType": "uint256",
          "name": "",
          "type": "uint256"
        }
      ],
      "stateMutability": "view",
      "type": "function",
      "constant": true
    }
  ],
  "bytecode": "0x60806040523480156200001157600080fd5b50600180546001600160a01b03191633179055600060198190556040805180820182526006815265104b4c4c914d60d21b602080830191909152825160608101909352602180845262000080949391620023919083013960408051602081019091526000815260329062000460565b50620000fa600160405180604001604052806006815260200165412d3233463560d01b8152506040518060400160405280601a81526020017f4649415420353030204769617264696e69657261202d313937320000000000008152506064604051806020016040528060008152506200046060201b60201c565b50620001646002604051806040016040528060068152602001652096999a239b60d11b8152506040518060400160405280600d81526020016c189c9b99102126ab901918181960991b815250601e604051806020016040528060008152506200046060201b60201c565b50620001de600360405180604001604052806006815260200165412d3435453760d01b8152506040518060400160405280601c81526020017f4645525241524920333630204d4f44454e41204631202d2031393939000000008152506028604051806020016040528060008152506200046060201b60201c565b50620002366004604051806040016040528060068152602001650825a6a6c8c760d31b815250604051806060016040528060228152602001620023de6022913960408051602081019091526000815260239062000460565b506200028e600560405180604001604052806006815260200165412d3637473960d01b8152506040518060600160405280602c8152602001620023b2602c9139604080516020810190915260008152603c9062000460565b50620003096006604051806040016040528060078152602001660412d37384531360cc1b8152506040518060400160405280601681526020017f4a4147554152204d4b3220332e384c202d2031393633000000000000000000008152506032604051806020016040528060008152506200046060201b60201c565b5062000384600760405180604001604052806007815260200166412d383946313160c81b8152506040518060400160405280601381526020017f4d47205441204d6964676574202d2031393338000000000000000000000000008152506037604051806020016040528060008152506200046060201b60201c565b50620003dd60086040518060400160405280600781526020016620969c98a3989960c91b8152506040518060600160405280602281526020016200236f6022913960408051602081019091526000815260199062000460565b5062000459600960405180604001604052806008815260200167412d31303145313360c01b8152506040518060400160405280601981526020017f46494154203630302043616272696f6c6574202d2031393733000000000000008152506028604051806020016040528060008152506200046060201b60201c565b5062000ba1565b6001546000906001600160a01b03163314620004fa5760405162461bcd60e51b815260206004820152604860248201527f20636574746520666f6e6374696f6e616c697465206e27657374206175746f7260448201527f697365652071756520706f7572206c652070726f7072696574616972652064756064820152670818dbdb9d1c985d60c21b608482015260a4015b60405180910390fd5b6200050585620009a1565b15620005605760405162461bcd60e51b815260206004820152602360248201527f6c65206368616d70206d6174726963756c6520657374206f626c696761746f6960448201526239329760e91b6064820152608401620004f1565b6200056b84620009a1565b15620005ba5760405162461bcd60e51b815260206004820152601d60248201527f4c65206368616d70206e6f6d20657374206f626c696761746f6972652e0000006044820152606401620004f1565b6000600386604051620005ce9190620009c7565b908152602001604051809103902060405180610100016040529081600082015481526020016001820180546200060490620009f8565b80601f01602080910402602001604051908101604052809291908181526020018280546200063290620009f8565b8015620006835780601f10620006575761010080835404028352916020019162000683565b820191906000526020600020905b8154815290600101906020018083116200066557829003601f168201915b505050505081526020016002820180546200069e90620009f8565b80601f0160208091040260200160405190810160405280929190818152602001828054620006cc90620009f8565b80156200071d5780601f10620006f1576101008083540402835291602001916200071d565b820191906000526020600020905b815481529060010190602001808311620006ff57829003601f168201915b505050918352505060038201546020820152600482015460409091019060ff16600181111562000751576200075162000a2e565b600181111562000765576200076562000a2e565b815260048201546001600160a01b03610100909104811660208301526005830154166040820152600682018054606090920191620007a390620009f8565b80601f0160208091040260200160405190810160405280929190818152602001828054620007d190620009f8565b8015620008225780601f10620007f65761010080835404028352916020019162000822565b820191906000526020600020905b8154815290600101906020018083116200080457829003601f168201915b505050919092525050508781526020810187905260408101869052606081018590526000608082018190523360a083015260e082018590526004805460018101825591529091507f8a35acfbc15ff81a39ae7d344fd709f28e8600b4aa8c65c6b64bfe7fe36bd19b0162000897878262000aad565b5080600387604051620008ab9190620009c7565b9081526040516020918190038201902082518155908201516001820190620008d4908262000aad565b5060408201516002820190620008eb908262000aad565b5060608201516003820155608082015160048201805460ff1916600183818111156200091b576200091b62000a2e565b021790555060a0820151600482018054610100600160a81b0319166101006001600160a01b039384160217905560c08301516005830180546001600160a01b0319169190921617905560e082015160068201906200097a908262000aad565b505060198054915060006200098f8362000b79565b90915550600198975050505050505050565b805160009082908203620009b85750600192915050565b50600092915050565b50919050565b6000825160005b81811015620009ea5760208186018101518583015201620009ce565b506000920191825250919050565b600181811c9082168062000a0d57607f821691505b602082108103620009c157634e487b7160e01b600052602260045260246000fd5b634e487b7160e01b600052602160045260246000fd5b634e487b7160e01b600052604160045260246000fd5b601f82111562000aa857600081815260208120601f850160051c8101602086101562000a835750805b601f850160051c820191505b8181101562000aa45782815560010162000a8f565b5050505b505050565b81516001600160401b0381111562000ac95762000ac962000a44565b62000ae18162000ada8454620009f8565b8462000a5a565b602080601f83116001811462000b19576000841562000b005750858301515b600019600386901b1c1916600185901b17855562000aa4565b600085815260208120601f198616915b8281101562000b4a5788860151825594840194600190910190840162000b29565b508582101562000b695787850151600019600388901b60f8161c191681555b5050505050600190811b01905550565b60006001820162000b9a57634e487b7160e01b600052601160045260246000fd5b5060010190565b6117be8062000bb16000396000f3fe6080604052600436106100ab5760003560e01c8063893d20e811610064578063893d20e8146101c75780639c2ca8fa146101ef578063beabacc814610211578063cf4b362c14610233578063d999e0f914610248578063fb1669ca1461026857600080fd5b806312065fe0146100dc5780634688b7621461010d57806363e01bec1461013057806363eb9e3e146101505780637e3e38f21461018357806384a9bd55146101a557600080fd5b366100d75733600090815260208190526040812080543492906100cf908490611266565b925050819055005b600080fd5b3480156100e857600080fd5b50336000908152602081905260409020545b6040519081526020015b60405180910390f35b61012061011b366004611322565b610288565b6040519015158152602001610104565b34801561013c57600080fd5b5061012061014b36600461135f565b6103dc565b34801561015c57600080fd5b5061017061016b366004611322565b6108e5565b604051610104979695949392919061144b565b34801561018f57600080fd5b50610198610c1f565b60405161010491906114c3565b3480156101b157600080fd5b506101ba610d03565b6040516101049190611525565b3480156101d357600080fd5b506001546040516001600160a01b039091168152602001610104565b3480156101fb57600080fd5b50336000908152602081905260409020546100fa565b34801561021d57600080fd5b5061023161022c36600461157c565b610d49565b005b34801561023f57600080fd5b50610198610e24565b34801561025457600080fd5b506100fa6102633660046115b8565b610ef4565b34801561027457600080fd5b506100fa6102833660046115b8565b610f2d565b60008061029483610f5a565b3360c08201526001608082015260405190915081906003906102b79086906115e7565b90815260405160209181900382019020825181559082015160018201906102de9082611686565b50604082015160028201906102f39082611686565b5060608201516003820155608082015160048201805460ff191660018381811115610320576103206115d1565b021790555060a0820151600482018054610100600160a81b0319166101006001600160a01b039384160217905560c08301516005830180546001600160a01b0319169190921617905560e0820151600682019061037d9082611686565b505033600090815260026020908152604082208482015181546001810183559184529190922090910191506103b29082611686565b506103d3336103c96001546001600160a01b031690565b8360600151610d49565b50600192915050565b6001546000906001600160a01b031633146104755760405162461bcd60e51b815260206004820152604860248201527f20636574746520666f6e6374696f6e616c697465206e27657374206175746f7260448201527f697365652071756520706f7572206c652070726f7072696574616972652064756064820152670818dbdb9d1c985d60c21b608482015260a4015b60405180910390fd5b61047e856111b8565b156104d75760405162461bcd60e51b815260206004820152602360248201527f6c65206368616d70206d6174726963756c6520657374206f626c696761746f6960448201526239329760e91b606482015260840161046c565b6104e0846111b8565b1561052d5760405162461bcd60e51b815260206004820152601d60248201527f4c65206368616d70206e6f6d20657374206f626c696761746f6972652e000000604482015260640161046c565b600060038660405161053f91906115e7565b9081526020016040518091039020604051806101000160405290816000820154815260200160018201805461057390611603565b80601f016020809104026020016040519081016040528092919081815260200182805461059f90611603565b80156105ec5780601f106105c1576101008083540402835291602001916105ec565b820191906000526020600020905b8154815290600101906020018083116105cf57829003601f168201915b5050505050815260200160028201805461060590611603565b80601f016020809104026020016040519081016040528092919081815260200182805461063190611603565b801561067e5780601f106106535761010080835404028352916020019161067e565b820191906000526020600020905b81548152906001019060200180831161066157829003601f168201915b505050918352505060038201546020820152600482015460409091019060ff1660018111156106af576106af6115d1565b60018111156106c0576106c06115d1565b815260048201546001600160a01b036101009091048116602083015260058301541660408201526006820180546060909201916106fc90611603565b80601f016020809104026020016040519081016040528092919081815260200182805461072890611603565b80156107755780601f1061074a57610100808354040283529160200191610775565b820191906000526020600020905b81548152906001019060200180831161075857829003601f168201915b505050919092525050508781526020810187905260408101869052606081018590526000608082018190523360a083015260e082018590526004805460018101825591529091507f8a35acfbc15ff81a39ae7d344fd709f28e8600b4aa8c65c6b64bfe7fe36bd19b016107e88782611686565b50806003876040516107fa91906115e7565b90815260405160209181900382019020825181559082015160018201906108219082611686565b50604082015160028201906108369082611686565b5060608201516003820155608082015160048201805460ff191660018381811115610863576108636115d1565b021790555060a0820151600482018054610100600160a81b0319166101006001600160a01b039384160217905560c08301516005830180546001600160a01b0319169190921617905560e082015160068201906108c09082611686565b505060198054915060006108d383611746565b90915550600198975050505050505050565b606080600060606000806060600060038960405161090391906115e7565b9081526020016040518091039020604051806101000160405290816000820154815260200160018201805461093790611603565b80601f016020809104026020016040519081016040528092919081815260200182805461096390611603565b80156109b05780601f10610985576101008083540402835291602001916109b0565b820191906000526020600020905b81548152906001019060200180831161099357829003601f168201915b505050505081526020016002820180546109c990611603565b80601f01602080910402602001604051908101604052809291908181526020018280546109f590611603565b8015610a425780601f10610a1757610100808354040283529160200191610a42565b820191906000526020600020905b815481529060010190602001808311610a2557829003601f168201915b505050918352505060038201546020820152600482015460409091019060ff166001811115610a7357610a736115d1565b6001811115610a8457610a846115d1565b815260048201546001600160a01b03610100909104811660208301526005830154166040820152600682018054606090920191610ac090611603565b80601f0160208091040260200160405190810160405280929190818152602001828054610aec90611603565b8015610b395780601f10610b0e57610100808354040283529160200191610b39565b820191906000526020600020905b815481529060010190602001808311610b1c57829003601f168201915b5050505050815250509050606060006001811115610b5957610b596115d1565b82608001516001811115610b6f57610b6f6115d1565b03610ba4575060408051808201909152601381527220566f697475726520646973706f6e69626c6560681b6020820152610be7565b600182608001516001811115610bbc57610bbc6115d1565b03610be7575060408051808201909152600d81526c566f69747572652076656e647560981b60208201525b60208201516040830151606084015160c085015160a086015160e090960151939e929d50909b50929950919750919550909350915050565b336000908152600260209081526040808320805482518185028101850190935280835260609492939192909184015b82821015610cfa578382906000526020600020018054610c6d90611603565b80601f0160208091040260200160405190810160405280929190818152602001828054610c9990611603565b8015610ce65780601f10610cbb57610100808354040283529160200191610ce6565b820191906000526020600020905b815481529060010190602001808311610cc957829003601f168201915b505050505081526020019060010190610c4e565b50505050905090565b610d0b6111dd565b604080516102808101918290529060059060149082845b81546001600160a01b03168152600190910190602001808311610d22575050505050905090565b816001600160a01b0316836001600160a01b031603610dc55760405162461bcd60e51b815260206004820152603260248201527f566f757320706f7576657a20706173207472616e736665726572206465206c27604482015271617267656e74206120766f7573206d656d6560701b606482015260840161046c565b6001600160a01b03831660009081526020819052604081208054839290610ded90849061175f565b90915550506001600160a01b03821660009081526020819052604081208054839290610e1a908490611266565b9091555050505050565b60606004805480602002602001604051908101604052809291908181526020016000905b82821015610cfa578382906000526020600020018054610e6790611603565b80601f0160208091040260200160405190810160405280929190818152602001828054610e9390611603565b8015610ee05780601f10610eb557610100808354040283529160200191610ee0565b820191906000526020600020905b815481529060010190602001808311610ec357829003601f168201915b505050505081526020019060010190610e48565b60003360058360148110610f0a57610f0a611772565b0180546001600160a01b0319166001600160a01b03929092169190911790555090565b33600090815260208190526040812080548391908390610f4e908490611266565b91829055509392505050565b610f626111fc565b600382604051610f7291906115e7565b90815260200160405180910390206040518061010001604052908160008201548152602001600182018054610fa690611603565b80601f0160208091040260200160405190810160405280929190818152602001828054610fd290611603565b801561101f5780601f10610ff45761010080835404028352916020019161101f565b820191906000526020600020905b81548152906001019060200180831161100257829003601f168201915b5050505050815260200160028201805461103890611603565b80601f016020809104026020016040519081016040528092919081815260200182805461106490611603565b80156110b15780601f10611086576101008083540402835291602001916110b1565b820191906000526020600020905b81548152906001019060200180831161109457829003601f168201915b505050918352505060038201546020820152600482015460409091019060ff1660018111156110e2576110e26115d1565b60018111156110f3576110f36115d1565b815260048201546001600160a01b0361010090910481166020830152600583015416604082015260068201805460609092019161112f90611603565b80601f016020809104026020016040519081016040528092919081815260200182805461115b90611603565b80156111a85780601f1061117d576101008083540402835291602001916111a8565b820191906000526020600020905b81548152906001019060200180831161118b57829003601f168201915b5050505050815250509050919050565b8051600090829082036111ce5750600192915050565b50600092915050565b50919050565b6040518061028001604052806014906020820280368337509192915050565b6040518061010001604052806000815260200160608152602001606081526020016000815260200160006001811115611237576112376115d1565b8152600060208201819052604082015260609081015290565b634e487b7160e01b600052601160045260246000fd5b8082018082111561127957611279611250565b92915050565b634e487b7160e01b600052604160045260246000fd5b600082601f8301126112a657600080fd5b813567ffffffffffffffff808211156112c1576112c161127f565b604051601f8301601f19908116603f011681019082821181831017156112e9576112e961127f565b8160405283815286602085880101111561130257600080fd5b836020870160208301376000602085830101528094505050505092915050565b60006020828403121561133457600080fd5b813567ffffffffffffffff81111561134b57600080fd5b61135784828501611295565b949350505050565b600080600080600060a0868803121561137757600080fd5b85359450602086013567ffffffffffffffff8082111561139657600080fd5b6113a289838a01611295565b955060408801359150808211156113b857600080fd5b6113c489838a01611295565b94506060880135935060808801359150808211156113e157600080fd5b506113ee88828901611295565b9150509295509295909350565b60005b838110156114165781810151838201526020016113fe565b50506000910152565b600081518084526114378160208601602086016113fb565b601f01601f19169290920160200192915050565b60e08152600061145e60e083018a61141f565b8281036020840152611470818a61141f565b9050876040840152828103606084015261148a818861141f565b6001600160a01b038781166080860152861660a085015283810360c085015290506114b5818561141f565b9a9950505050505050505050565b6000602080830181845280855180835260408601915060408160051b870101925083870160005b8281101561151857603f1988860301845261150685835161141f565b945092850192908501906001016114ea565b5092979650505050505050565b6102808101818360005b60148110156115575781516001600160a01b031683526020928301929091019060010161152f565b50505092915050565b80356001600160a01b038116811461157757600080fd5b919050565b60008060006060848603121561159157600080fd5b61159a84611560565b92506115a860208501611560565b9150604084013590509250925092565b6000602082840312156115ca57600080fd5b5035919050565b634e487b7160e01b600052602160045260246000fd5b600082516115f98184602087016113fb565b9190910192915050565b600181811c9082168061161757607f821691505b6020821081036111d757634e487b7160e01b600052602260045260246000fd5b601f82111561168157600081815260208120601f850160051c8101602086101561165e5750805b601f850160051c820191505b8181101561167d5782815560010161166a565b5050505b505050565b815167ffffffffffffffff8111156116a0576116a061127f565b6116b4816116ae8454611603565b84611637565b602080601f8311600181146116e957600084156116d15750858301515b600019600386901b1c1916600185901b17855561167d565b600085815260208120601f198616915b82811015611718578886015182559484019460019091019084016116f9565b50858210156117365787850151600019600388901b60f8161c191681555b5050505050600190811b01905550565b60006001820161175857611758611250565b5060010190565b8181038181111561127957611279611250565b634e487b7160e01b600052603260045260246000fdfea2646970667358221220baeaf4b45ae3d441b5a9f27f59569c2d94b055001f4c9fdae53587fcea632d6464736f6c634300081100334d455243454445532d42454e5a2032383020534c205061676f6465202d20313937304a41475541522054797065204520342e3220526f616473746572202d2031393636524f4c4c5320524f5943452032302f323520484f4f5045522053504f52542053414c4f4f4e202d20313933324d4f52524953204d696e6920434f4f5045522031303030204d4b32202d2031393638",
  "immutableReferences": {},
  "source": "// SPDX-License-Identifier: MIT\r\npragma solidity 0.8.17;\r\nimport \"./CompteBanque.sol\";\r\n\r\ncontract VoitureCollection is CompteBanque{\r\n\r\n  struct Voiture{\r\n        uint256 IdMatricule;\r\n        string matricule;\r\n        string nom;\r\n        uint256 prix;\r\n        StatusVoiture status;\r\n        address vendeur;\r\n        address acheteur;\r\n        string imgVoiture;\r\n    }\r\n\r\n    enum StatusVoiture {Disponible, Vendu}\r\n\r\n    // liste des voiture achet par une adresse du compte acheteur\r\n    mapping (address => string[]) private listVoitureAcheter;\r\n\r\n    // sauvegarde dans depot voiture\r\n    mapping(string => Voiture) depotVoitures;\r\n\r\n    //Liste des mtricules des voitures \r\n    string[] listeVoitures;\r\n\r\n    address[20] listAcheteurs;\r\n\r\n    uint256 nombreVoitures;\r\n    \r\n\r\n    constructor(){\r\n\r\n        nombreVoitures = 0;\r\n              ajouterVoiture(0,\"A-12E4\",\"JAGUAR Type E 4.2 Roadster - 1966\",50,\"\");\r\n              ajouterVoiture(1,\"A-23F5\",\"FIAT 500 Giardiniera -1972\",100,\"\");\r\n              ajouterVoiture(2,\"A-34G6\",\"1972 BMW 2002\",30,\"\");\r\n              ajouterVoiture(3,\"A-45E7\",\"FERRARI 360 MODENA F1 - 1999\",40,\"\");\r\n              ajouterVoiture(4,\"A-56F8\",\"MORRIS Mini COOPER 1000 MK2 - 1968\",35,\"\");\r\n              ajouterVoiture(5,\"A-67G9\",\"ROLLS ROYCE 20/25 HOOPER SPORT SALOON - 1932\",60,\"\");\r\n              ajouterVoiture(6,\"A-78E10\",\"JAGUAR MK2 3.8L - 1963\",50,\"\");\r\n              ajouterVoiture(7,\"A-89F11\",\"MG TA Midget - 1938\",55,\"\");\r\n              ajouterVoiture(8,\"A-91G12\",\"MERCEDES-BENZ 280 SL Pagode - 1970\",25,\"\");\r\n              ajouterVoiture(9,\"A-101E13\",\"FIAT 600 Cabriolet - 1973\",40,\"\");\r\n              \r\n        }\r\n\r\n        \r\n    function isVide(string memory _chaine) pure private returns(bool _isVide){\r\n        bytes memory bytesStringName = bytes(_chaine);\r\n        if (bytesStringName.length == 0) {\r\n            return true;\r\n        } else {\r\n            return false;\r\n        }\r\n    }\r\n    function ajouterVoiture(uint256 _id, string memory _matricule,string memory _nom,uint256 _prix,string memory _imgVoiture) public isOwner() returns(bool ok)  {\r\n        require(!isVide(_matricule), \"le champ matricule est obligatoire.\");\r\n        require(!isVide(_nom),\"Le champ nom est obligatoire.\");\r\n       // require(price > 0, \"Le prix doit etre superieur  0.\");\r\n        \r\n        Voiture memory v = depotVoitures[_matricule];\r\n        v.IdMatricule = _id;\r\n        v.matricule = _matricule; \r\n        v.nom = _nom;\r\n        v.prix = _prix;\r\n        v.status = VoitureCollection.StatusVoiture.Disponible;\r\n        v.vendeur = msg.sender;\r\n        v.imgVoiture = _imgVoiture;\r\n        listeVoitures.push(_matricule);  \r\n        depotVoitures[_matricule] = v;\r\n        nombreVoitures ++;\r\n        return true;\r\n}\r\n    function getListVoitures() public view returns(string[] memory _listeVoitures){\r\n        return listeVoitures;\r\n    }\r\n    \r\n    function getVoitureByMatricule(string memory _matricule) private view returns(Voiture memory car){\r\n        return depotVoitures[_matricule];   \r\n    }\r\n\r\n    function getVoitureStatutByMatricule(string memory _matricule) public view returns(string memory matricule,string memory nom, uint256 prix,string memory status,address acheteur,address vendeur,string memory imgVoiture){\r\n        Voiture memory v = depotVoitures[_matricule];\r\n        string memory statusTemp;\r\n        if(v.status == StatusVoiture.Disponible){\r\n            statusTemp = \" Voiture disponible\";\r\n        }else if(v.status == StatusVoiture.Vendu){\r\n            statusTemp = \"Voiture vendu\";\r\n        }\r\n\r\n        return (v.matricule,v.nom,v.prix,statusTemp,v.acheteur,v.vendeur,v.imgVoiture);\r\n    }\r\n\r\n    \r\n    function getMyListVoitures() public view returns(string[] memory v){\r\n        return listVoitureAcheter[msg.sender];\r\n    }\r\n\r\n    function acheterVoiture (string memory _matricule) public payable returns(bool success){\r\n        Voiture memory v = getVoitureByMatricule(_matricule);\r\n\r\n        //require(v.status == VoitureCollection.StatusVoiture.Disponible ,\" La voiture n'est pas disponible pour la vente\");\r\n        //require(msg.value >= v.prix,\" Vous n'avez pas assez d'argent pour acheter la voiture\");\r\n\r\n        //if (v.status == VoitureCollection.StatusVoiture.Disponible && msg.value >= v.prix)\r\n        //{\r\n            v.acheteur = msg.sender;\r\n            v.status = VoitureCollection.StatusVoiture.Vendu;\r\n            depotVoitures[_matricule] = v;\r\n            listVoitureAcheter[msg.sender].push(v.matricule);\r\n            transfer(msg.sender,getOwner(), v.prix);\r\n            //payable(msg.sender).transfer(msg.value);\r\n            return true;    \r\n        //}\r\n        //else\r\n            //return false;\r\n       \r\n    }\r\n\r\n    function acheter(uint matriculeId) public returns (uint) {\r\n\t  \r\n\t  listAcheteurs[matriculeId] = msg.sender;\r\n\r\n\t  return matriculeId;\r\n\t}\r\n\r\n    function getAcheteurs() public view returns (address[20] memory) {\r\n\t  return listAcheteurs;\r\n\t}\r\n\r\n    function getSoldeCompte() public view returns(uint256) {\r\n      return getBalance(); \r\n} \r\n}\r\n ",
  "sourcePath": "D:\\Master2_Info\\projets\\VoitureCollection_Vente\\contracts\\VoitureCollection.sol",
  "compiler": {
    "name": "solc",
    "version": "0.8.17+commit.8df45f5f.Emscripten.clang"
  },
  "schemaVersion": "3.4.10",
  "updatedAt": "2022-11-27T18:09:03.504Z",
  "networkType": "ethereum",
  "devdoc": {
    "kind": "dev",
    "methods": {},
    "version": 1
  },
  "userdoc": {
    "kind": "user",
    "methods": {},
    "version": 1
  }
}